S01500004C6F636F4E6574536869656C642E7372656302
S11300000C9462000C948A000C948A000C948A006C
S11300100C948A000C948A000C948A000C948A0034
S11300200C948A000C948A000C94280C0C945C0C9C
S11300300C948A000C948A000C948A000C948A0014
S11300400C9426150C948A000C944F130C9487136B
S11300500C948A000C948A000C948A000C948A00F4
S11300600C948A000C948A0000000008000201002D
S1130070000304070000000000000000010204085F
S113008010204080010204081020010204081020FE
S1130090040404040404040402020202020203032A
S11300A003030303000000002300260029000000CE
S11300B00000250028002B00000000002400270079
S11300C02A00B71311241FBECFEFD8E0DEBFCDBF87
S11300D013E0A0E0B1E0E8E2FEE202C005900D9278
S11300E0A238B107D9F727E0A2E8B3E001C01D9216
S11300F0A335B207E1F710E0C2E6D0E004C02197CF
S1130100FE010E94B816C136D107C9F70E94BF1379
S11301100C9412170C940000AF92BF92CF92DF920E
S1130120FF920F931F93CF93DF93CDB7DEB7609702
S11301300FB6F894DEBF0FBECDBF9C01462F862FAD
S113014090E0FC013196019767E070E00E9482160E
S11301506E0F7F1F87EF89836D5F6F776A83B2E0CD
S1130160A0E0F12C51E04A1708F459C00B2F10E01D
S1130170E1E0F0E0EC0FFD1FE00FF11FF082A417A7
S113018008F04DC05901AA0EB11CF5019081652FEC
S113019070E0892F90E0052E02C0959587950A940A
S11301A0E2F7CC24C394D12CCC0EDD1E0C0D1D1D06
S11301B08F29F8018083F501F08008E010E0061B28
S11301C0170B8FEF90E002C0959587950A95E2F79B
S11301D08F2107E010E06801C61AD70A90E002C038
S11301E0880F991FCA94E2F7F82E5F5F5830A1F484
S11301F0BF5F61E070E06C0F7D1F6B0F711DFB0131
S11302008083F50180818170F82EFF0CFF0CFF0CB8
S1130210FF0CFF0CFF0C51E0AF5FBF5FA4CFBE012A
S11302206F5F7F4F86EC93E00E94E00960960FB603
S1130230F894DEBF0FBECDBFDF91CF911F910F9118
S1130240FF90DF90CF90BF90AF900895EF92FF9210
S11302500F931F93CF93DF93CDB7DEB760970FB69D
S1130260F894DEBF0FBECDBF01E011E0F801918923
S1130270A92FB0E050E3589F9001112424523A4F23
S1130280260F311D7901FFEFEF1AFF0AFD013996A0
S1130290EE0FFF1FEF5FFE4FF182E082AF5FBE4FB4
S11302A05A964C939F5F9370F801918B32952295E7
S11302B02F7023273F702327529F600D112464520F
S11302C06F706230F8F08EEF860F8230F0F08CEFB2
S11302D0860F8230E8F08AEF860F8230E0F088EFF4
S11302E0860F8230D8F086EF860F8230D0F084EF0C
S11302F0860F8230C8F082EF860F8230C0F487E028
S113030090E017C080E090E014C081E090E011C05C
S113031082E090E00EC083E090E00BC084E090E0C7
S113032008C085E090E005C086E090E002C080E06F
S113033090E03327220F331F220F331F220F331F66
S1130340820F931F22EB2983282F2F772A83880F6C
S1130350892F881F990B91958B83442311F0806119
S11303608B83613071F0633061F0653051F0673038
S113037041F0693031F06B3021F06D3011F06F30A5
S113038019F48B8180628B838B8180648B83BE01A3
S11303906F5F7F4F86EC93E00E94E00960960FB692
S11303A0F894DEBF0FBECDBFDF91CF911F910F91A7
S11303B0FF90EF900895EF92FF920F931F93CF93C6
S11303C0DF93CDB7DEB760970FB6F894DEBF0FBEEC
S11303D0CDBF01E011E0F8012081E22FF0E07C01C3
S11303E034E2E31A3AEFF30ADF01AA0FBB1FAF5F4F
S11303F0BE4F1296FC92EE921197EF5FFE4F458727
S113040061872F5F2370F801208385529A4F20EB78
S11304102983282F2F772A83880F892F881F990BE8
S113042091958B83442311F080618B83662319F0AB
S11304308B8180628B83BE016F5F7F4F86EC93E07C
S11304400E94E00960960FB6F894DEBF0FBECDBFE0
S1130450DF91CF911F910F91FF90EF900895FF923C
S11304600F931F93CF93DF9300D000D0CDB7DEB7A7
S1130470F82E062F142F60E271E08DEA96E00E94B8
S1130480FE13113039F460E371E08DEA96E00E94C6
S1130490281406C069E371E08DEA96E00E942814EE
S11304A081E08983FA820B831C8364E0CE01019688
S11304B00E948C000F900F900F900F90DF91CF91BE
S11304C01F910F91FF9008950F931F93CF93DF9384
S11304D000D01F92CDB7DEB7082F162F60E471E06D
S11304E08DEA96E00E94FE134AE050E0602F8DEA08
S11304F096E00E94051569E571E08DEA96E00E9498
S1130500FE134AE050E0612F8DEA96E00E940D153B
S113051019821A821B820A831B8363E0CE0101962F
S11305200E948C000F900F900F90DF91CF911F913C
S11305300F910895EF92FF920F931F93CF93DF9340
S113054000D000D01F92CDB7DEB7E82EF62E042FD0
S1130550122F63E671E08DEA96E00E94FE1340E1FB
S113056050E06E2D8DEA96E00E94051567E771E074
S11305708DEA96E00E94FE134AE050E06F2D8DEA6A
S113058096E00E9405156BE771E08DEA96E00E9403
S1130590FE134AE050E0602F8DEA96E00E940515B4
S11305A06EE771E08DEA96E00E94FE13612F70E021
S11305B04AE050E08DEA96E00E94E414CE010196F0
S11305C025E0FC0111922A95E9F720EB2983EA82C0
S11305D0FB820C831D8365E00E948C000F900F90BA
S11305E00F900F900F90DF91CF911F910F91FF907B
S11305F0EF900895EF92FF920F931F93CF93DF93A1
S113060000D000D01F92CDB7DEB7E82EF62E042F0F
S1130610122F64E871E08DEA96E00E94FE1340E137
S113062050E06E2D8DEA96E00E94051567E771E0B3
S11306308DEA96E00E94FE134AE050E06F2D8DEAA9
S113064096E00E9405156BE771E08DEA96E00E9442
S1130650FE134AE050E0602F8DEA96E00E940515F3
S11306606EE771E08DEA96E00E94FE13612F70E060
S11306704AE050E08DEA96E00E94E414CE0101962F
S113068025E0FC0111922A95E9F722EB2983EA82FD
S1130690FB820C831D8365E00E948C000F900F90F9
S11306A00F900F900F90DF91CF911F910F91FF90BA
S11306B0EF900895EF92FF920F931F93CF93DF93E0
S11306C000D000D01F92CDB7DEB7E82EF62E042F4F
S11306D0122F68E971E08DEA96E00E94FE1340E172
S11306E050E06E2D8DEA96E00E94051567E771E0F3
S11306F08DEA96E00E94FE134AE050E06F2D8DEAE9
S113070096E00E9405156BE771E08DEA96E00E9481
S1130710FE134AE050E0602F8DEA96E00E94051532
S113072063EB71E08DEA96E00E94FE134AE050E02C
S1130730612F8DEA96E00E940D15CE01019625E009
S1130740FC0111922A95E9F720EA2983EA82FB82C7
S11307500C831D8365E00E948C000F900F900F9016
S11307600F900F90DF91CF911F910F91FF90EF9019
S11307700895CF93DF93EC018881803A09F460C037
S113078028F4882351F0813089F168C1803B09F451
S11307908CC0823B09F402C161C189818B3A09F0A2
S11307A05DC16CEC71E08DEA96E00E94FE136A81F3
S11307B04AE050E08DEA96E00E94051568ED71E08C
S11307C08DEA96E00E942814CA81CF5FC73008F0F2
S11307D045C18C2F90E00E94FC16813029F46BEA0D
S11307E08C2F0E9464023AC1CF5FF0CF898196E5D5
S11307F0980F923018F08A3B08F430C18B81813015
S113080031F440E06BEA8A810E942F0227C18A8179
S113081061E090E00E94041760EE71E08DEA96E0DA
S11308200E94FE136A814AE050E08DEA96E00E943D
S1130830051566EF71E08DEA96E00E9428140EC15A
S1130840898196E5980F923018F08A3B08F406C126
S11308506DEF71E08DEA96E00E94FE136A814AE032
S113086050E08DEA96E00E9405156BE771E08DEA91
S113087096E00E94FE136B814AE050E08DEA96E018
S11308800E94051562E172E08DEA96E00E94281448
S11308904B818A8120918203682F0E945A038091A0
S11308A082038F5F80938203D9C064E172E08DEA92
S11308B096E00E94FE138A816B8170E020E2829FA1
S11308C0600D711D11244AE050E08DEA96E00E940B
S11308D0DC1469E771E08DEA96E00E94FE136A81F8
S11308E04AE050E08DEA96E00E9405156BE771E05E
S11308F08DEA96E00E94FE136B814AE050E08DEA97
S113090096E00E9405156EE771E08DEA96E00E947C
S1130910FE138C81882319F069EB71E002C060EC4E
S113092071E08DEA96E00E942814898196E5980F7B
S1130930923018F08A3B08F491C0EA818B819C8143
S113094030E2E39FF0011124E358FB4FE80FF11D5F
S113095081E0911101C080E080838C8161E081118C
S113096001C060E02A818B8190E041E030E2239F66
S1130970800D911D11240E94DB018C8161E08111A5
S113098001C060E02A818B8190E040E030E2239F47
S1130990800D911D11240E94DB0160C068E272E0A9
S11309A08DEA96E00E94FE138A816B8170E090E3E9
S11309B0899F600D711D11244AE050E08DEA96E094
S11309C00E94DC1469E771E08DEA96E00E94FE1350
S11309D06A814AE050E08DEA96E00E94051567EBD3
S11309E071E08DEA96E00E94FE136B814AE050E0CC
S11309F08DEA96E00E9405156EE771E08DEA96E0B7
S1130A000E94FE138C81882319F06AEF71E002C002
S1130A1068EC71E08DEA96E00E942814898196E5DD
S1130A20980F923010F08A3BC8F0EA818B819C8148
S1130A3020E3E29FF0011124E35AFA4FE80FF11D7D
S1130A4081E0911101C080E080838C8141E08111BB
S1130A5001C040E06B818A810E942601DF91CF9121
S1130A600895DC0190E0961770F4292F30E0F90125
S1130A70EA57FC4F4081FD01E20FF31F208142132E
S1130A8004C09F5FF0CF81E0089580E0089580E086
S1130A9090918503891738F4E82FF0E0EA57FC4F6A
S1130AA010828F5FF5CF1092850308958230E1F0B4
S1130AB028F4882349F0813079F036C0843021F15C
S1130AC0D8F0853049F130C067E08CE392E00E94B1
S1130AD0310581112BC0089566E084E492E00E9400
S1130AE03105811125C0089567E08BE492E00E94EE
S1130AF0310581111FC0089566E083E592E00E94EC
S1130B003105811119C0089565E08AE592E00E94DB
S1130B103105811113C0089565E085E692E00E94D5
S1130B20310581110DC0089580E0089581E0089594
S1130B3081E0089581E0089581E0089581E00895B9
S1130B4081E00895882391F090E021E030E0981747
S1130B5080F4A901440F551F220F331F220F331FA6
S1130B60220F331F240F351F9F5FF1CF81E090E0E8
S1130B700895822F932F0895CF92DF92EF92FF92E0
S1130B800F931F93CF93DF938DEA96E00E94C611D3
S1130B902091000191E02F3F09F090E0992351F05A
S1130BA091E08F3F09F490E0992321F091E0909334
S1130BB083030DC091E02F3F09F490E0992339F0AD
S1130BC091E08F3F09F090E091111092830380939C
S1130BD0000190918303913051F490918503E92FA2
S1130BE0F0E0EA57FC4F80839F5F909385038A303F
S1130BF009F06AC3C0E0C63008F064C38C2F0E94B9
S1130C005605882309F45CC3C23009F43AC130F4B0
S1130C10CC2369F0C13009F49FC054C3C43009F433
S1130C2064C208F4C8C1C53009F43AC34BC3009187
S1130C3085038EEF800F80938403E12CF12C1091B7
S1130C408403E12FF0E0EA57FC4FC081C032A9F0E1
S1130C50D0E0E097802F811B82500E94A2059C0166
S1130C60C29FC001C39F900DD29F900D1124E80E26
S1130C70F91E115010938403E2CF64E773E08DEA08
S1130C8096E00E9428146BE672E08DEA96E00E94DA
S1130C90FE134AE050E0B7018DEA96E00E941F156A
S1130CA068E771E08DEA96E00E94FE139701ABEAD3
S1130CB0BAEA0E94BE168C01169507951295029504
S1130CC00F7001271F7001274AE050E0B8018DEA38
S1130CD096E00E941F156BE771E08DEA96E00E9492
S1130CE0FE1380E3809FE001819FD00D1124EC1A54
S1130CF0FD0A4AE050E0B7018DEA96E00E941F1514
S1130D006EE772E08DEA96E00E94FE13C35ADA4F52
S1130D10CE0DDF1D688170E04AE050E08DEA96E078
S1130D200E94DC1463E872E08DEA96E00E94FE13F0
S1130D304AE050E060E070E08DEA96E00E94E4143E
S1130D4020E04E2D602F8CEA0E94FA0240E06E2DC6
S1130D50802F0E942601B6C2009185038EEF800F7A
S1130D6080938403E12CF12C10918403E12FF0E0B3
S1130D70EA57FC4FC081C032A9F0D0E0E097802F41
S1130D80811B82500E94A205FC01CE9FC001CF9F0F
S1130D90900DDE9F900D1124E80EF91E1150109352
S1130DA08403E2CF64E773E08DEA96E00E9428149E
S1130DB066E872E08DEA96E00E94FE134AE050E095
S1130DC0B7018DEA96E00E941F1568E771E08DEA8D
S1130DD096E00E94FE139701ABEABAEA0E94BE169F
S1130DE08C0116950795129502950F7001271F70B7
S1130DF001274AE050E0B8018DEA96E00E941F15F1
S1130E006BE771E08DEA96E00E94FE1380E3809F19
S1130E10E001819FD00D1124EC1AFD0A4AE050E054
S1130E20B7018DEA96E00E941F156EE772E08DEA25
S1130E3096E00E94FE13C35ADA4FCE0DDF1D68817F
S1130E4070E04AE050E08DEA96E00E94DC1463E82A
S1130E5072E08DEA96E00E94FE134AE050E061E001
S1130E6070E08DEA96E00E94E41421E04E2D602F9C
S1130E708CEA0E94FA0241E06E2D802F0E94260126
S1130E8021C2009185038EEF800F80938403E12CAF
S1130E90F12C10918403E12FF0E0EA57FC4FC0815C
S1130EA0C032A9F0D0E0E097802F811B82500E94CD
S1130EB0A2059C01C29FC001C39F900DD29F900DBB
S1130EC01124E80EF91E115010938403E2CF64E755
S1130ED073E08DEA96E00E94281468E972E08DEAD6
S1130EE096E00E94FE134AE050E0B7018DEA96E0D6
S1130EF00E941F1568E771E08DEA96E00E94FE13D8
S1130F00870116950795129502950F7001271F709A
S1130F1001274AE050E0B8018DEA96E00E941F15CF
S1130F206BE771E08DEA96E00E94FE13E701CF7152
S1130F30DD274AE050E0BE018DEA96E00E941F15CD
S1130F406EE772E08DEA96E00E94FE13C801880FF6
S1130F50991F82959295907F9827807F9827835830
S1130F609B4FC80FD91F688170E04AE050E08DEABA
S1130F7096E00E94DC1463E872E08DEA96E00E9439
S1130F80FE134AE050E060E070E08DEA96E00E94D3
S1130F90E4144E2D4F7120E0602F8CEA0E949A02D7
S1130FA041E060E0C7010E94DB0140E060E0C7016E
S1130FB00E94DB0187C1009185038EEF800F80932F
S1130FC08403E12CF12C10918403E12FF0E0EA5723
S1130FD0FC4FC081C032A9F0D0E0E097802F811B84
S1130FE082500E94A205FC01CE9FC001CF9F900DAC
S1130FF0DE9F900D1124E80EF91E11501093840306
S1131000E2CF64E773E08DEA96E00E9428146BEA6D
S113101072E08DEA96E00E94FE134AE050E0B701C8
S11310208DEA96E00E941F1568E771E08DEA96E06C
S11310300E94FE13870116950795129502950F706D
S113104001271F7001274AE050E0B8018DEA96E0BD
S11310500E941F156BE771E08DEA96E00E94FE1373
S1131060E701CF71DD274AE050E0BE018DEA96E04A
S11310700E941F156EE772E08DEA96E00E94FE134F
S1131080C801880F991F82959295907F9827807F39
S1131090982783589B4FC80FD91F688170E04AE096
S11310A050E08DEA96E00E94DC1463E872E08DEA79
S11310B096E00E94FE134AE050E061E070E08DEAA1
S11310C096E00E94E4144E2D4F7121E0602F8CEACB
S11310D00E949A0241E061E0C7010E94DB0140E006
S11310E061E0C7010E94DB01EDC0009185038EEF32
S11310F0800F80938403E12CF12C10918403E12F61
S1131100F0E0EA57FC4FC081C032A9F0D0E0E0978C
S1131110802F811B82500E94A2059C01C29FC001A6
S1131120C39F900DD29F900D1124E80EF91E11500B
S113113010938403E2CF64E773E08DEA96E00E94A3
S113114028146DEB72E08DEA96E00E94FE134AE0EB
S113115050E0B7018DEA96E00E941F1568E771E040
S11311608DEA96E00E94FE13E701D695C795D295C5
S1131170C295CF70CD27DF70CD274AE050E0BE0185
S11311808DEA96E00E941F156BE771E08DEA96E008
S11311900E94FE1387010F7111274AE050E0B80145
S11311A08DEA96E00E941F156EE772E08DEA96E0E4
S11311B00E94FE13CE01880F991F82959295907F0D
S11311C09827807F982783589B4F6C01C00ED11EAF
S11311D0F601608170E04AE050E08DEA96E00E94FA
S11311E0DC1463E872E08DEA96E00E94FE13F601D7
S11311F0808161E070E0882311F060E070E04AE0F3
S113120050E08DEA96E00E94DC148DEA96E00E949C
S11312101C14FE01EE0FFF1FE295F295F07FFE27EE
S1131220E07FFE27E358FB4FE00FF11F8081882306
S113123011F020E001C021E04E2D4F716C2F8CEA9B
S11312400E949A02FE01EE0FFF1FE295F295F07FD5
S1131250FE27E07FFE27E358FB4FE00FF11F80815C
S1131260882311F060E001C061E041E0C7010E9401
S1131270DB01CC0FDD1FC295D295D07FDC27C07F68
S1131280DC27C358DB4FC00FD11F8881882311F09E
S113129060E001C061E040E0C7010E94DB0112C0D0
S11312A0C0E0C73038F460E08C2F90E00E9404174F
S11312B0CF5FF7CF41E06BEA8CEA0E942F0202C0B5
S11312C0CF5F99CC0E944705DF91CF911F910F9179
S11312D0FF90EF90DF90CF900895CF93C62F61E0F9
S11312E08C2F0E94E7156C2F70E0FB01E458FF4F30
S11312F02491FB01E057FF4FE491F0E0EE0FFF1F54
S1131300E255FF4F4591549160E091E0921741F00E
S11313106F5F91E0062E01C0990F0A94EAF7F6CFA9
S1131320CA010E94210CCF9108951F93CF93DF939C
S1131330EC01162F0E94210B612FCE010E946D0932
S1131340CE010E94F40DDF91CF911F9108950E9468
S1131350270B0895CF92DF92FF920F931F93CF93A1
S1131360DF936C018B01C42FF12C88E18F15A8F059
S1131370D1E06C2FC8010E94210E8330C1F081306E
S113138009F4D0E08230A8F3823011F4D111F1CF06
S1131390CB3108F0C150F394E8CFF601E557FF4F85
S11313A08081918101969183808386E001C083E0EE
S11313B0DF91CF911F910F91FF90DF90CF9008950F
S11313C04EE20E94AA090895FF920F931F93CF93B0
S11313D0DF93FB0121816281362F3F7070E8379FD4
S11313E0A0011124422BDA019081923B09F011965D
S11313F0943B09F4F8C080F4903B09F44DC030F4F8
S1131400923809F43FC0933899F1F8C0913B09F43C
S113141050C0923BB9F0F2C0903D09F466C030F47C
S11314209C3B09F455C09D3B31F0E8C0973E19F050
S1131430973F19F0E3C081E0FEC0CF010E94D50EB2
S113144081E0F9C0CD01880F991F65FF03C022E038
S113145030E002C021E030E0820F931F2FE530E13D
S1131460232B09F4CDC060710E945F1081E0E3C0BA
S11314708FED9FE0892B09F4C5C081E00E94DF0F46
S113148081E0D9C08FED9FE0892B09F4BDC080E0D5
S11314900E94DF0F81E0CFC023E031E1232B09F468
S11314A0B5C0462F40726071CD010E94031181E0E6
S11314B0C2C066FFADC080E090E0892B09F4AAC0E9
S11314C0462F40726071CD010E94000081E0B3C0DC
S11314D0462F4072607120E030E0232B09F49CC059
S11314E0CD010E94000081E0A6C0822F8076803268
S11314F0B9F1803619F0811191C032C080E090E0DA
S1131500892B09F48DC01381812F807F803319F0DA
S1131510803109F087C0048170E06F5F7F4F2170D4
S1131520C22F80E0D82FC60FD71FCD2B21F068948F
S1131530FF24F7F801C0F12CC1E0D1E0C53008F078
S113154073C08D2F812311F040E001C041E02D2FA5
S11315502023DD0F6C2F8F2D0E940000CF5FEECF74
S113156080E090E0892B09F461C0422F4F71862FEF
S113157090E050E8459F800D911D112425FB222702
S113158020F9019663816D3719F4448150E007C056
S1131590448150E070E8679F400D511D11243323AE
S11315A081F0323081F0343081F0363081F03830DF
S11315B081F03A3081F03C3081F03E3079F438E407
S11315C00DC031E40BC032E409C033E407C034E495
S11315D005C035E403C036E401C037E4632F0E943C
S11315E0000081E028C02C3319F580E090E0892BBD
S11315F009F1822F0E94000081E01DC080E01BC021
S113160081E019C081E017C081E015C081E013C0FA
S113161081E011C081E00FC081E00DC081E00BC00A
S113162081E009C081E007C081E005C081E003C01A
S113163080E001C081E0DF91CF911F910F91FF9075
S113164008952FE8FC0111922A95E9F70895EF9285
S1131650FF921F93CF93DF93EC01FE01EF57FF4FEF
S1131660808131979081891709F4CCC0FE01E80F7D
S1131670F11D108111235CF5FE01EE57FF4F90819F
S1131680891739F03596208131812F5F3F4F31839F
S11316902083FE01EE57FF4F80838FEF31968083C6
S11316A0812F8076803659F090E0959587959595B1
S11316B0879595958795959587958E5F01C080E070
S11316C0FE01EC57FF4F808381110AC00CC0FE015C
S11316D0EC57FF4F8081811105C0108381E003C066
S11316E081E001C080E0882309F450C0FE01EE5778
S11316F0FF4F20813296808190E0820F911D8138C6
S113170091050CF443C080E8E82EE21AF89434976B
S1131710408132968081841728F43297942F981B45
S1131720908306C0FE01E058FF4F8E2D840F808306
S11317307894FE01EE57FF4F80814817A0F450E0E3
S1131740F12CBE01CE018E0D9F1D0E94E116FE01FB
S1131750EE57FF4F8081BE01680F711DA701CE01B6
S11317600E94E11608C0481B50E0BE01680F711DBD
S1131770CE010E94E116DE01AF57BF4F8C91FE01EE
S1131780EE57FF4F9081891B8C931082FE01EF5717
S1131790FF4F80818F5F808331969081282F291B92
S11317A0882314F431971082FE01EC57FF4F808197
S11317B0281321C03197808118130AC09E01290F74
S11317C0311D3296808191810196918380830AC074
S11317D0FE01E957FF4F80819181019691838083B7
S11317E020E030E0FE01EF57FF4F80813196808387
S11317F02115310551F4FE01ED57FF4F8081182763
S113180010832BCF80E090E002C0822F932FDF91D2
S1131810CF911F91FF90EF900895FC0190819076F5
S1131820903611F4818108958081807690E09595B9
S113183087959595879595958795959587958E5FC9
S11318400895909357048093560460935504089523
S11318501F920F920FB60F9211248F939F93EF93C1
S1131860FF93EFE6F0E080818F7D80838091860096
S113187090918700885F984F9093600480935F04F1
S113188080915F0490916004909389008093880014
S113189086B3826086BB80818260808384E080938B
S11318A0630410926204FF91EF919F918F910F90C6
S11318B00FBE0F901F9018951F920F920FB60F92A4
S11318C011240F931F932F933F934F935F936F9321
S11318D07F938F939F93AF93BF93CF93DF93EF93B4
S11318E0FF9380915F049091600480559B4F909387
S11318F0600480935F0480915F04909160049093EE
S1131900890080938800809162048F5F80936204D1
S113191080916304843009F045C080916204893069
S113192078F48091610490E09595879580936104A3
S1131930189B45C1809161048068809361043FC114
S113194086B3806286BBEFE6F0E0808180628083AC
S113195018990CC0E0915D04F0915E04E957FF4FC3
S11319608081918101969183808317C040916104A5
S113197080915D0490915E04FC01E058FF4F30813A
S113198021E0230F2083FC01E30FF11D4083222378
S113199024F4FC01E058FF4F10821092620481E0AD
S11319A08093630480916304833009F0AEC0E091B6
S11319B05604F091570480812091550490E0022E42
S11319C002C0959587950A94E2F733B1832780FD89
S11319D006C01092620482E08093630496C08091F2
S11319E06204893010F58091610480FF0CC030815D
S11319F081E090E002C0880F991F2A95E2F7809554
S1131A00832380830AC0308181E090E002C0880F84
S1131A10991F2A95E2F7832B80838091610490E0DB
S1131A20959587958093610470C080916204893094
S1131A3061F4308181E090E002C0880F991F2A95FB
S1131A40E2F780958323808360C080915A048F5F7E
S1131A5080935A0490915904891750F510926204A6
S1131A60A0915B04B0915C0480915A04A80FB11D4D
S1131A708C9180936104308181E090E002C0880FF2
S1131A80991F2A95E2F7832B80838091840090919B
S1131A9085008A5B9B4F9093600480935F048091E0
S1131AA05F049091600490938900809388002DC016
S1131AB081E08093580400915B0410915C04C09110
S1131AC05D04D0915E04C8010E940D0C90E098174B
S1131AD0B8F4F801E90FF11D4081FE01E058FF4F11
S1131AE0308121E0230F2083FE01E30FF11D4083A9
S1131AF0222324F4FE01E058FF4F10829F5FE7CFBA
S1131B001092620481E080936304809163048230C4
S1131B10D1F580916204811111C0E0915604F091D5
S1131B205704208181E090E00090550402C0880FA2
S1131B30991F0A94E2F7822B808325C08091620466
S1131B408F3008F1E0915604F0915704208181E030
S1131B5090E00090550402C0880F991F0A94E2F7A0
S1131B608095822380831092620481E080936304D1
S1131B70E0915D04F0915E04E357FF4F8081918111
S1131B80019691838083809163048130C1F48091B4
S1131B906204811109C086B3806286BBEFE6F0E07F
S1131BA08081806280830BC080916204883338F026
S1131BB010926304EFE6F0E080818D7F8083FF91D3
S1131BC0EF91DF91CF91BF91AF919F918F917F91D1
S1131BD06F915F914F913F912F911F910F910F90B2
S1131BE00FBE0F901F90189590935E0480935D0430
S1131BF084B18E7F84B9E0915604F091570420811A
S1131C0081E090E00090550402C0880F991F0A9467
S1131C10E2F780958223808310928000E1E8F0E06F
S1131C2081E080831092630486B3806286BBAFE652
S1131C30B0E08C9180628C938081887F8160808306
S1131C4008951F93CF93DF93EC01162F0E940D0C80
S1131C508093590420915904215010925A049FEF03
S1131C6080915A04821768F480915A04FE01E80FA7
S1131C70F11D8081982780915A048F5F80935A04C4
S1131C80EFCFFE01E20FF11D9083193308F018E342
S1131C90F89480916304813059F48091620481172F
S1131CA038F010926304EFE6F0E080818D7F80834A
S1131CB0789480916304813039F480916204843192
S1131CC008F06AC080E06DC080916304811166C031
S1131CD0F894EFE6F0E080818F7D8083B59B06C0A9
S1131CE0808180628083789482E05BC0E0915604B6
S1131CF0F0915704208181E090E00090550402C0E7
S1131D00880F991F0A94E2F7822B808380918400C4
S1131D10909185008A5B9B4F9093600480935F044D
S1131D2080915F049091600490938900809388006F
S1131D307894D0935C04C0935B0410925A0410927C
S1131D40580488818093610483E080936304109233
S1131D50620486B3826086BBEFE6F0E08081826035
S1131D608083809163048330E1F380915804882355
S1131D7069F0E0915D04F0915E04E757FF4F8081C4
S1131D80918101969183808383E00BC080916304E9
S1131D90823031F484E005C081E003C082E001C0F8
S1131DA085E0DF91CF911F9108950F931F93CF93F7
S1131DB0DF93DC0111964C911197435050E092E06F
S1131DC011962C91119730E022503109692F70E05F
S1131DD0261737076CF0E52FF0E0ED01C90FD11D90
S1131DE02881E659FB4F220F20839F5F5F5FE8CF76
S1131DF0A0E050E0A41708F048C06A2F70E0052F57
S1131E0010E0FB01E659FB4F808190E09C01052E18
S1131E1002C0220F331F0A94E2F72083CB010196FC
S1131E20E42FF0E08E179F0781F1EC01C659DB4FD8
S1131E309881C7E0D0E0C01BD10B892F90E002C08D
S1131E4095958795CA95E2F7EB01C659DB4F822B2E
S1131E5088835F5F5730B9F46E5F7F4FE617F707EB
S1131E60A1F0415021E02A0F241760F4822F90E062
S1131E70FC01E559FB4F3081FC01E659FB4F3083EF
S1131E802F5FF2CF50E0AF5FB5CF8AE694E00E94B7
S1131E90B903DF91CF911F910F91089569E086EC0A
S1131EA093E00E94950926E040E05BE460E070E086
S1131EB08DEA96E00E94BD1261E080E10E94E71580
S1131EC060E080E10E94261660ED72E08DEA96E003
S1131ED00E94281408950F931F930E94BC058091BB
S1131EE07C04882389F080917A0490917B04019684
S1131EF090937B0480937A04893E934028F0109257
S1131F007C0481E080931F0186EC93E00E94A70982
S1131F109093690480936804892B09F161E080E15E
S1131F200E9426160E9471156093640470936504E0
S1131F308093660490936704809168049091690487
S1131F400E940D0C90E0981710F49F5FFCCF6091F5
S1131F5068047091690486EC93E00E94E40980E1CE
S1131F600E9457160197B9F40E94711500916404F8
S1131F70109165042091660430916704DC01CB0163
S1131F80801B910BA20BB30B85369105A105B105FE
S1131F9020F081E003C080E001C080E0882361F08C
S1131FA060E080E10E942616109264041092650499
S1131FB010926604109267041F910F910895EF9296
S1131FC0FF920F931F93CF93DF93813009F06AC080
S1131FD062EF72E08DEA96E00E94281410921F01CD
S1131FE02FEF81E19AE7215080409040E1F700C053
S1131FF00000D0E0D230A0F4C0E0C03378F420E395
S1132000D29FF0011124E35AFA4FEC0FF11D4081E5
S11320106C2F8D2F0E942601CF5FEFCFDF5FEACFB9
S1132020E12C86E08E1508F1F12C9FE19F15D8F084
S1132030CF2DD0E0E0E2EE9EC00111248C010358C4
S11320401B4F0C0F1D1FF8016081C80FD91F41E001
S1132050CE010E94DB01F801608140E0CE010E94C4
S1132060DB01F394E2CFE394DCCF10927B04109273
S11320707A0481E080937C046DE073E08DEA96E05D
S11320800E942814C0E0C73098F48C2F90E00E947E
S1132090FC16813029F46BEA8C2F0E94640208C07C
S11320A0CF5FF1CF64E273E08DEA96E00E942814DA
S11320B0DF91CF911F910F91FF90EF900895EF92D0
S11320C0FF921F93CF93DF939C0180911F0188237C
S11320D009F493C090E081E0943020F5492F50E05A
S11320E0FA013996EE0FFF1FEF5FFE4F0190F0816A
S11320F0E02DE217F307A1F4FA01EF5FFE4FE28D42
S1132100F0E0A1E0B0E0611102C0A0E0B0E0EA17A5
S1132110FB0731F4FA01EF5FFE4F8FEF828F80E00F
S11321209F5FDACF813009F068C0162FE901CD5DD9
S1132130D54062E473E08DEA96E00E94FE134AE023
S113214050E0BE018DEA96E00E941F1569E771E038
S11321508DEA96E00E94FE139E01ABEABAEA0E9461
S1132160BE167C01F694E794F694E794F694E7940B
S1132170F694E794F694E7944AE050E0B7018DEAC8
S113218096E00E941F1567EB71E08DEA96E00E94CD
S1132190FE1320E32E9DC0012F9D900D1124C81B1A
S11321A0D90B4AE050E0BE018DEA96E00E941F156B
S11321B06EE771E08DEA96E00E94FE13112319F098
S11321C06AEF71E002C068EC71E08DEA96E00E946B
S11321D0281421E0111101C020E080E38E9DF0015C
S11321E08F9DF00D1124E35AFA4FEC0FFD1F20834D
S11321F04C2F6E2D8CEA0E94FA02DF91CF911F9131
S1132200FF90EF900895EF92FF921F93CF93DF9387
S1132210DC0180911F01882309F497C090E081E0DC
S1132220943090F5292F30E0F901EE0FFF1FEF5F96
S1132230FE4F0180F281E02DEA17FB0719F5F90141
S1132240EF5FFE4FE185F0E0C1E0D0E0611102C034
S1132250C0E0D0E0EC17FD07A9F4F901EF5FFE4FF1
S1132260E585F0E0C1E0D0E0411102C0C0E0D0E07B
S1132270EC17FD0739F4F901EF5FFE4F8FEF81870B
S1132280858780E09F5FCCCF813009F05EC06623F4
S113229009F45BC0142FED01CC5DD54061E573E01A
S11322A08DEA96E00E94FE134AE050E0BE018DEAFA
S11322B096E00E941F1569E771E08DEA96E00E949E
S11322C0FE137E01F694E794F694E794F694E7946B
S11322D0F694E794F694E7944AE050E0B7018DEA67
S11322E096E00E941F156BE771E08DEA96E00E946C
S11322F0FE13CF71DD274AE050E0BE018DEA96E07F
S11323000E941F156EE771E08DEA96E00E94FE13AD
S1132310112319F069EB71E002C060EC71E08DEA01
S113232096E00E94281421E0111101C020E0C701A9
S1132330880F991F82959295907F9827807F982780
S113234083589B4FC80FD91F2883DF91CF911F91CA
S1132350FF90EF900895FC01218D30E0205C3F4F09
S1132360828DA901481B5109CA018F7399270895C9
S1132370FC01918D828D981731F0828DE80FF11D4B
S1132380858D90E008958FEF9FEF0895FC01918D66
S1132390828D981761F0828DDF01A80FB11D5D96C3
S11323A08C91928D9F5F9F73928F90E008958FEF31
S11323B09FEF0895FC01238D348D231738F08FE3AC
S11323C090E0821B9109830F911D0895832F90E063
S11323D0821B9109019708958DEA93E1892B39F0C5
S11323E080E090E0892B29F00E94AD1303C080E0C7
S11323F001C080E081110E9400000895FC01848DD9
S1132400DF01A80FB11DA35ABF4F8C91248D30E07A
S11324102F5F3F4F2F733078332334F42150310929
S1132420206C3F6F2F5F3F4F248FA689B7898C9311
S1132430A089B1898C91837080648C93938D848DF1
S1132440981306C00288F389E02D80818F7D8083F4
S113245008951F93CF93DF93EC01188D112329F175
S1132460EA89FB89808185FD07C0A889B9898C9197
S113247086FD04C0812F03C0812F01C080E0882322
S1132480A1F00FB607FC05C0908195FD03C080E064
S113249001C080E0882321F3E889F989808185FFE0
S11324A0DFCFCE010E94FE11DBCFDF91CF911F91D0
S11324B008950F931F93CF93DF93EC0181E0888FEE
S11324C09B8D8C8D981307C0E889F989808185FDDF
S11324D004C080E003C080E001C081E0882391F063
S11324E08FB7F89491E0992359F0EE89FF896083BE
S11324F0E889F989908193709064908390E0F3CF98
S11325008FBF34C02B8D30E02F5F3F4F2F73307857
S1132510332334F421503109206C3F6F2F5F3F4F38
S1132520162F022F8C8D08130CC00FB607FCFACFA0
S1132530E889F989808185FFF5CFCE010E94FE11DB
S1132540F1CF8B8DFE01E80FF11DE35AFF4F10838D
S11325509FB7F89481E0882341F00B8FEA89FB89C7
S113256080818062808380E0F6CF9FBF81E090E02D
S1132570DF91CF911F910F910895CF92DF92EF9247
S1132580FF921F93CF93DF93EC016A017B01122F1B
S113259060E47BE48CE490E0A70196010E94961627
S11325A0DA01C9010197A109B109B695A7959795D3
S11325B087959C01E889F98982E08083211580E16F
S11325C03807A8F0E889F989108260EA75E286E2A2
S11325D090E0A70196010E949616DA01C9010197BD
S11325E0A109B109B695A795979587959C01EC85A6
S11325F0FD853083EE85FF852083188EEC89FD8967
S11326001083EA89FB89808180618083EA89FB8960
S1132610808188608083EA89FB89808180688083E7
S1132620EA89FB8980818F7D8083DF91CF911F911F
S1132630FF90EF90DF90CF900895019779F56F3F69
S11326407F4F61F5EDEAF6E01382128288EE93E0A3
S1132650A0E0B0E084839583A683B78384E693E007
S11326609183808385EC90E09587848784EC90E067
S11326709787868780EC90E0918B808B81EC90E04B
S1132680938B828B82EC90E0958B848B86EC90E02C
S1132690978B868B118E128E138E148E08951F9233
S11326A00F920FB60F9211242F938F939F93AF9392
S11326B0BF93EF93FF93E091BD06F091BE06808136
S11326C082FD14C0EDEAF6E0A689B7892C91818DCC
S11326D08F5F8F73928D891771F0DF01E18DF0E0C8
S11326E0E355F94F258F59968C9305C0E091C306A5
S11326F0F091C4068081FF91EF91BF91AF919F91BA
S11327008F912F910F900FBE0F901F9018951F92CD
S11327100F920FB60F9211242F933F934F935F9311
S11327206F937F938F939F93AF93BF93EF93FF9395
S11327308DEA96E00E94FE11FF91EF91BF91AF9157
S11327409F918F917F916F915F914F913F912F91C5
S11327500F900FBE0F901F9018958DEA96E00E947F
S1132760AB1121E0892B09F420E0822F08956FEF4B
S11327707FEF81E090E00E941D13089508950E9468
S11327807D150E94BE130E944E0F0E946B0F8CEEAB
S113279091E1892BD1F30E94EC11F7CFCF92DF9214
S11327A0EF92FF920F931F93CF93DF938C01DB0182
S11327B0C0E0D0E07A0181E0E81AF108452BA1F0ED
S11327C0F80180819181FC01208131816D01FFEF4D
S11327D0CF1ADF0A6C91C801F9010995892B21F000
S11327E02196A701D601E6CFCE01DF91CF911F91AB
S11327F00F91FF90EF90DF90CF90089561157105D0
S113280081F0FB0101900020E9F73197AF01461BED
S1132810570BDC01ED91FC910280F381E02D0995C9
S1132820089580E090E00895DC01ED91FC91019021
S1132830F081E02D09950895DC01ED91FC91028071
S1132840F381E02D42E050E062E773E009950895DA
S11328500F931F93CF93DF93EC010E94FE138C011F
S1132860CE010E941C14800F911FDF91CF911F9104
S11328700F9108958F929F92AF92BF92DF92EF9241
S1132880FF920F931F93CF93DF93CDB7DEB7A1973A
S11328900FB6F894DEBF0FBECDBF7C01CB01BA01E9
S11328A0D22E19A221E02D1520F00F2EFAE0DF2EF2
S11328B0F02D8E010F5D1F4F8D2C912CA12CB12C6E
S11328C0A50194010E949616E62F622F732F842F80
S11328D0952F01501109EA3010F4E05D01C0E95C64
S11328E0D801EC93611571058105910529F701154E
S11328F0110591F0F80101900020E9F73197AF013B
S1132900401B510BD701ED91FC910280F381E02D26
S1132910B801C701099502C080E090E0A1960FB606
S1132920F894DEBF0FBECDBFDF91CF911F910F9101
S1132930FF90EF90DF90BF90AF909F908F9008959D
S1132940CF92DF92EF92FF920F931F93CF93DF9377
S1132950EC016A017B012115310541F4E881F9811B
S11329600190F081E02D642F09951DC02A303105B6
S1132970C1F4772394F46DE20E9414148C0144276B
S11329805527BA014C195D096E097F092AE0CE0169
S11329900E943A14800F911F06C02AE00E943A1444
S11329A002C00E943A14DF91CF911F910F91FF90C2
S11329B0EF90DF90CF9008959A01AB01770F660BEB
S11329C0770B0E94A01408950F931F93CF93DF9366
S11329D0EC010E94DC148C01CE010E941C14800FB7
S11329E0911FDF91CF911F910F910895211531050A
S11329F049F4DC01ED91FC910190F081E02D642F0C
S1132A00099508950E943A1408959A01462F50E0BA
S1132A1060E070E00E94F61408950F931F93CF9323
S1132A20DF93EC010E9405158C01CE010E941C1459
S1132A30800F911FDF91CF911F910F9108959A01FB
S1132A40AB0160E070E00E94F61408951F920F92AB
S1132A500FB60F9211244F935F936F937F938F93CD
S1132A609F93AF93BF9340914B0750914C07609154
S1132A704D0770914E0790914A0786E6890F8D376E
S1132A8030F089EE890F4F5F5F4F6F4F7F4F809318
S1132A904A0740934B0750934C0760934D0770933C
S1132AA04E0780914F0790915007A0915107B09124
S1132AB052070196A11DB11D80934F0790935007B3
S1132AC0A0935107B0935207BF91AF919F918F91FB
S1132AD07F916F915F914F910F900FBE0F901F9058
S1132AE018952FB7F89460914B0770914C0780911B
S1132AF04D0790914E072FBF0895789484B5826056
S1132B0084BD84B5816084BD85B5826085BD85B58D
S1132B10816085BDEEE6F0E0808181608083E1E83C
S1132B20F0E0108280818260808380818160808374
S1132B30E0E8F0E0808181608083E1EBF0E0808177
S1132B4084608083E0EBF0E0808181608083EAE749
S1132B50F0E08081846080838081826080838081D2
S1132B60816080838081806880831092C100089591
S1132B70833069F028F48130B1F08230C1F00895D7
S1132B808730C9F08830E9F0843001F506C0E0E808
S1132B90F0E080818F7780830895E0E8F0E0808121
S1132BA08F7D8083089584B58F7784BD089584B51F
S1132BB08F7D84BD0895E0EBF0E080818F77808382
S1132BC00895E0EBF0E080818F7D80830895CF93BA
S1132BD0DF9390E0FC01E458FF4F2491FC01E0579F
S1132BE0FF4F8491882379F190E0880F991FFC01AD
S1132BF0E854FF4FA591B491FC01E255FF4FC591F4
S1132C00D49161110CC09FB7F8948C91E22FE09598
S1132C108E238C932881E223E8839FBF14C0623003
S1132C2061F49FB7F8948C91322F309583238C9361
S1132C30E881E22BE8839FBF06C08FB7F894EC913C
S1132C40E22BEC938FBFDF91CF9108951F93CF9325
S1132C50DF93282F30E0F901E859FF4F8491F901FF
S1132C60E458FF4F1491F901E057FF4FC491CC236E
S1132C70D1F0D62F81110E94B815EC2FF0E0EE0FA1
S1132C80FF1FE255FF4FA591B4918FB7F894D1116E
S1132C9006C09C91E12FE095E923EC9303C0EC91ED
S1132CA0E12BEC938FBFDF91CF911F910895CF93C8
S1132CB0DF93282F30E0F901E859FF4F8491F9019F
S1132CC0E458FF4FD491F901E057FF4FC491CC234E
S1132CD089F081110E94B815EC2FF0E0EE0FFF1F70
S1132CE0EC55FF4FA591B491EC91ED2331F081E0C7
S1132CF090E005C080E090E002C080E090E0DF91C9
S1132D00CF91089597FB072E16F4009407D077FD12
S1132D1009D00E94CD1607FC05D03EF4909581950C
S1132D209F4F0895709561957F4F0895A1E21A2EE3
S1132D30AA1BBB1BFD010DC0AA1FBB1FEE1FFF1F5B
S1132D40A217B307E407F50720F0A21BB30BE40BAB
S1132D50F50B661F771F881F991F1A9469F76095F2
S1132D607095809590959B01AC01BD01CF010895AC
S1132D70EE0FFF1F0590F491E02D0994A29FB0017E
S1132D80B39FC001A39F700D811D1124911DB29F9B
S1132D90700D811D1124911D0895AA1BBB1B51E1C7
S1132DA007C0AA1FBB1FA617B70710F0A61BB70BB7
S1132DB0881F991F5A95A9F780959095BC01CD015C
S1132DC008956817790768F4FB01DC01E40FF51F27
S1132DD0A40FB51F02C002900E9241505040D8F784
S1132DE008950C94F316FB01DC0102C001900D92CE
S1132DF041505040D8F70895F999FECF92BD81BD56
S1132E00F89A992780B50895262FF999FECF1FBA0D
S1132E1092BD81BD20BD0FB6F894FA9AF99A0FBEFF
S10B2E2001960895F894FFCF18
S1132E28FF00FFFF000000000000FF000000FF009B
S1132E38000000FFFF000000000000FF0000000188
S1132E48547820557365722048656C6C6F3A20007D
S1132E587175657374696F6E00616E73776572005E
S1132E68547820557365722052657365743A2064EA
S1132E786972656374202D200020626F617264207A
S1132E882D2000547820557365722042303A20640E
S1132E986972656374280029205B005D5B005D200E
S1132EA869732000547820557365722042323A20A1
S1132EB864697265637428005478205573657220B8
S1132EC84361724372656174653A2064697265632B
S1132ED87428005D2049443A00656E61626C65009F
S1132EE864697361626C65006F6666005265736538
S1132EF874206C69737420002072656164656400D1
S1132F08527820557365722048656C6C6F3A20427C
S1132F186F6172642000206973206F6E00527820FC
S1132F2855736572204361724372656174653A2012
S1132F385B005D00527820557365722042303A2058
S1132F4861646472202D20005278205573657220C4
S1132F5842323A2061646472202D20006232206F6C
S1132F68666620006232206F6E20006230206F6631
S1132F786620006230206F6E200062302063686132
S1132F886E6765200068656C6C6F00436F6D6D201B
S1132F9873656E643A204232206F666620005D20B5
S1132FA83D20002D3E00436F6D6D2073656E643ABD
S1132FB8204232206F6E2000436F6D6D2073656E62
S1132FC8643A204230206F66662000436F6D6D209E
S1132FD873656E643A204230206F6E2000436F6D33
S1132FE86D2073656E643A206368616E67652000BE
S1132FF853657276657220436172537973742076CF
S1133008322E302074657374206669726D7761722C
S11330186500547261696E20436F6E74726F6C6CD4
S1133028657220436F6E6E656374656400547261E3
S1133038696E20436F6E74726F6C6C657220526592
S113304861647900547261696E20436F6E74726FA3
S11330586C6C657220446973636F6E6E6563746526
S1133068640052782042323A2061646472202D2030
S11330780052782042303A2061646472202D200086
S1133088000000005912CE13DA112912AB11C6112F
S1133098B8110D0A006E616E00696E66006F76667F
S10530A8000022
S9030000FC
