S00E00005365727665722E737265639F
S11300000C945F000C9487000C9487000C94870078
S11300100C9487000C9487000C9487000C94870040
S11300200C9487000C94F4080C9487000C948700BB
S11300300C9487000C9487000C9487000C94870020
S11300400C94EF0C0C9487000C94440B0C947C0BD4
S11300500C9487000C9487000C9487000C94870000
S11300600C9487000C948700000000080002010033
S1130070000304070000000000000000010204085F
S113008010204080010204081020010204081020FE
S1130090040404040404040402020202020203032A
S11300A00303030300000000250028002B000000C8
S11300B00000240027002A009209AC0B990911249E
S11300C01FBECFEFD8E0DEBFCDBF12E0A0E0B1E0AD
S11300D0E4EFF0E202C005900D92A234B107D9F723
S11300E023E0A2E4B2E001C01D92AA37B207E1F70F
S11300F010E0CEE5D0E004C02197FE010E94BA0EC4
S1130100CC35D107C9F70E94B40B0C946D100C9434
S11301100000CF93DF93EC0188859985009711F057
S11301200E94580F8E8188231CF060E00E94D20D3B
S1130130DF91CF910895CF93DF93EC018E818823D3
S11301403CF061E00E94D20D60E08E810E94110EAD
S113015081E08983DF91CF910895EF92FF920F930D
S11301601F93CF93DF93EC017B01888599850097DA
S113017011F00E94580F9D858A85981303C083E06F
S113018090E002C084E090E08E9D80018F9D100D70
S11301909E9D100D11241D830C83C8010E94C00E66
S11301A099878887009741F0A80160E070E00E9479
S11301B03D10FB82EA8204C01D821C821B821A82CB
S11301C0DF91CF911F910F91FF90EF900895FC0163
S11301D09585828551E0981350E0462F42954695C7
S11301E0469543704587862F90E09C013595279569
S11301F0359527953595279535952795237022872D
S113020095958795959587958370838763706487A3
S113021081E0808380859185892B51F081E04213B0
S113022080E0581729F0CF01628173810E94AD00EC
S11302300895CF92DF92EF92FF920F931F93CF9383
S1130240DF93CDB7DEB729970FB6F894DEBF0FBEA4
S1130250CDBF8C01DC0118968D919C911997892B47
S113026009F4A3C00E943A0DF801C684D784E0883B
S1130270F188DC01CB018C199D09AE09BF09C29735
S1130280A105B10578F3F894848195819A838983D3
S11302900084F185E02DDF01119680818B83F801C4
S11302A08081882309F437C0E288F388F7019081BC
S11302B0F8018489982B9C83F70190818095892388
S11302C08D838D81898788E088875C816D814B81EE
S11302D03885298589819A81508347FD252F3A9550
S11302E02083262F39F0441F00C0000060830000E3
S11302F000C0F2CF38E04D9160830000019761F7B0
S1130300D8015396FC93EE9352974B8338872987F1
S11303109A83898342C0F801E288F388F7019081C7
S1130320F8018489982B9C83F70190818095892317
S11303308D838D818F8388E08E835C816D814B8179
S11303403E812F8189819A81508347FD252F00C0EA
S113035000C0208300C000C000C000C000C0608393
S11303600000262F3A9541F0441F000000C000C051
S113037000C000C000C0E8CF38E04D9100C06083E9
S113038000C0019709F7D8015396FC93EE93529756
S11303904B833E832F839A83898378940E943A0DFA
S11303A0F80166877787808B918B29960FB6F8942E
S11303B0DEBF0FBECDBFDF91CF911F910F91FF9094
S11303C0EF90DF90CF9008951F93CF93DF93EC01CC
S11303D0162F8981882331F08E8188231CF060E0F8
S11303E00E94D20D1E838981882341F061E0812F10
S11303F00E94D20D60E0812F0E94110E612F70E0E7
S1130400FB01E057FF4FE491F0E0EE0FFF1FEC55C6
S1130410FF4F859194919B8B8A8BFB01E458FF4F8E
S1130420E491EC8BDF91CF911F910895EF92FF92AD
S11304301F93CF93DF93EC017B01142F19821F824A
S1130440198618861E861F86188A198A622F0E94AA
S1130450E700B701CE010E94AD00612FCE010E94DA
S1130460E401DF91CF911F91FF90EF9008957F9267
S11304708F929F92AF92BF92CF92DF92EF92FF92B0
S11304800F931F93CF93DF93FC01828193816817AD
S1130490790708F057C04A01AA24BB24782CC32E3C
S11304A0D42EE52EFF24BC2DA22F8781882399F01A
S11304B0082F10E0809ED001819EB00D11247B2E68
S11304C0C09ED001C19EB00D1124209F7001219FB8
S11304D0F00C1124AF2D9585D2859D130AC020857B
S11304E03185CB01880F991F680F791F620F731F25
S11304F019C000851185660F771F660F771F600F7F
S1130500711FC52EDD24EE24FF248B01090F111D5C
S1130510882329F0C89E90011124232F01C02C2D7B
S1130520E801288382859B01280F311DE901788227
S11305308385EB01C80FD11DB8838485FB01E80FC7
S1130540F11DA083DF91CF911F910F91FF90EF9048
S1130550DF90CF90BF90AF909F908F907F90089541
S11305600F931F9390E0A0E0B0E0DC019927882767
S1130570062F10E020E030E0322F212F102F00272B
S1130580802B912BA22BB32BBC01CD01642B1F918B
S11305900F910895882391F090E021E030E09817BE
S11305A080F4A901440F551F220F331F220F331F5C
S11305B0220F331F240F351F9F5FF1CF81E090E09E
S11305C00895822F932F08950F931F93CF93309103
S11305D08202C09183023C17C1F19C2F931770F4DF
S11305E080918302E82FF0E0EE5BFD4F2081203202
S11305F041F08F5F809383029F5FF0CF00E010E0B3
S113060002C000E010E080918302C817C0F48C1B84
S113061081500E94CA02EC2FF0E0EE5BFD4F208176
S113062030E020533109AC01429FC001439F900D3B
S1130630529F900D1124080F191FCF5FE4CF8F5FD5
S113064080938302802F912F02C08FEF9FEFCF9171
S11306501F910F910895DC0110928302FC01019017
S11306600020E9F73197E81BF90B50918202852F9E
S113067090E08E179F0780F190E0292F30E0FD0174
S113068001900020E9F73197EA1BFB0B2E173F0777
S113069088F4F901EE5BFD4F4081FD01E20FF31F89
S11306A0808148131BC09F5FE3E8F2E020812F5F45
S11306B02083E3CF80918302E82FF0E0EE5BFD4FCF
S11306C09081903229F48F5F8093830281E00895B2
S11306D0851730F081E0089580E0089580E0089562
S11306E080E00895FF920F931F93CF93DF9380E1EF
S11306F091E00E942B03C82F8823A1F00E94E402FA
S11307008C010E94E402D82F0E94E402F82E0E9479
S1130710E402282F4F2D6D2FC8010E948C060E94E1
S1130720AC0754C28AE691E00E942B03C82F8823A9
S113073009F10E94E4028C010E94E402D82FF8011E
S1130740EE0FFF1FE00FF11FEA57FD4F81E080839A
S113075062E0C8010E944D06F82E61E0C8010E94C3
S11307604D062F2D482F6D2FC8010E948C060E9424
S1130770AC072CC287E791E00E942B03C82F882383
S113078009F10E94E4028C010E94E402D82FF801CE
S1130790EE0FFF1FE00FF11FEA57FD4F81E0818349
S11307A062E0C8010E944D06F82E60E0C8010E9474
S11307B04D062F2D4D2F682FC8010E948C060E94D4
S11307C0AC0704C284E891E00E942B03C82F88235D
S11307D009F10E94E4028C010E94E402F82EF8015F
S11307E0EE0FFF1FE00FF11FEA57FD4F81E08283F8
S11307F061E0C8010E944D06D82F60E0C8010E9444
S11308004D062F2D4D2F682FC8010E948C060E9483
S1130810AC07DCC184E191E00E942B03C82F88233C
S113082051F00E94E4022FEF4FEF6FEF0E948C060D
S11308300E94AC07CBC18DE191E00E942B03C82F2D
S1130840882351F00E94E40220E040E060E00E942E
S11308508C060E94AC07BAC187E291E00E942B0388
S1130860C82F882389F000E010E00C30110548F40B
S11308702FEF4FEF6FEFC8010E948C060F5F1F4FE1
S1130880F4CF0E94AC07A2C184E391E00E942B0341
S1130890C82F882389F000E010E00C30110548F4DB
S11308A020E040E060E0C8010E948C060F5F1F4F0B
S11308B0F4CF0E94AC078AC18DE291E00E942B0321
S11308C0C82F8823A9F080E090E08C30910568F46B
S11308D0FC01EE0FFF1FE80FF91FEA57FD4F21E05F
S11308E02083218322830196F0CF0E94AC076EC13E
S11308F08AE391E00E942B03C82F8823A1F080E0B3
S113090090E08C30910560F4FC01EE0FFF1FE80FBE
S1130910F91FEA57FD4F1082118212820196F1CF1E
S11309200E94AC0753C182E491E00E942B03C82FBC
S1130930882399F080E090E08C30910558F4FC0114
S1130940EE0FFF1FE80FF91FEA57FD4F21E0208348
S11309500196F2CF0E94AC0739C18CE491E00E9469
S11309602B03C82F882399F080E090E08C30910508
S113097058F4FC01EE0FFF1FE80FF91FEA57FD4F73
S113098021E021830196F2CF0E94AC071FC186E5C6
S113099091E00E942B03C82F882399F080E090E017
S11309A08C30910558F4FC01EE0FFF1FE80FF91F7E
S11309B0EA57FD4F21E022830196F2CF0E94AC0753
S11309C005C18AE191E00E942B03C82F882389F096
S11309D00E94E402FC01EE0FFF1F8E0F9F1FFC011B
S11309E0EA57FD4F81E08083818382830E94AC07B4
S11309F0EDC083E291E00E942B03C82F882381F08D
S1130A000E94E402FC01EE0FFF1F8E0F9F1FFC01EA
S1130A10EA57FD4F1082118212820E94AC07D6C0A1
S1130A2080E691E00E942B03C82F882379F00E946E
S1130A30E402FC01EE0FFF1F8E0F9F1FFC01EA571B
S1130A40FD4F81E080830E94AC07C0C086E691E040
S1130A500E942B03C82F882371F00E94E402FC013A
S1130A60EE0FFF1F8E0F9F1FFC01EA57FD4F1082F0
S1130A700E94AC07ABC08DE691E00E942B03C82F07
S1130A80882379F00E94E402FC01EE0FFF1F8E0F11
S1130A909F1FFC01EA57FD4F81E081830E94AC0750
S1130AA095C083E791E00E942B03C82F882371F03F
S1130AB00E94E402FC01EE0FFF1F8E0F9F1FFC013A
S1130AC0EA57FD4F11820E94AC0780C08AE791E08B
S1130AD00E942B03C82F882379F00E94E402FC01B2
S1130AE0EE0FFF1F8E0F9F1FFC01EA57FD4F81E0A1
S1130AF082830E94AC076AC080E891E00E942B03C5
S1130B00C82F882371F00E94E402FC01EE0FFF1F3E
S1130B108E0F9F1FFC01EA57FD4F12820E94AC0703
S1130B2055C087E891E00E942B03C82F882381F0E9
S1130B301092B60200E010E00C30110530F4C80148
S1130B400E941F070F5F1F4FF7CF0E94AC073EC0E4
S1130B508FE891E00E942B03C82F882389F081E05D
S1130B608093B60200E010E00C30110530F4C801A7
S1130B700E9492060F5F1F4FF7CF0E94AC0726C05A
S1130B8086E991E00E942B03C82F882331F082E08C
S1130B908093B6020E94AC0719C08FE991E00E94CD
S1130BA02B03C82F882331F083E08093B6020E9480
S1130BB0AC070CC08AEA91E00E942B03C82F88235B
S1130BC029F084E08093B6020E94AC078C2FDF9159
S1130BD0CF911F910F91FF90089580E0803438F4F5
S1130BE0E82FF0E0EE5BFD4F10828F5FF7CF10929D
S1130BF08202109283020895CF9380ED92E00E94C6
S1130C00A009181619060CF046C080ED92E00E9467
S1130C10BB0990918202913458F08A30E1F564EB7B
S1130C2071E080ED92E00E941D0C0E94ED0533C03E
S1130C308A3049F56AEC71E080ED92E00E94F30B92
S1130C40C0E080918202C81758F4EC2FF0E0EE5B0C
S1130C50FD4F608180ED92E00E94090CCF5FF1CFDF
S1130C6064E372E080ED92E00E941D0C0E94720326
S1130C70811106C061ED71E080ED92E00E941D0CCF
S1130C800E94ED0508C0E92FF0E0EE5BFD4F808384
S1130C909F5F90938202CF910895613061F018F0C4
S1130CA0623091F01AC09C01220F331F820F931FF0
S1130CB00E94441008959C01220F331F820F931F3A
S1130CC001960E94441008959C01220F331F820F45
S1130CD0931F02960E94441008958FEF08950F9376
S1130CE01F93CF93DF93042F122FEC01CC0FDD1F42
S1130CF0C80FD91FCE010E944C10602FCE0101965F
S1130D000E944C10612FCE0102960E944C10DF917C
S1130D10CF911F910F9108958C30910510F40E948A
S1130D206F060895CF93DF93FC01E655FD4F2081B4
S1130D30222309F470C0EC018091B7029091B802AB
S1130D4001979093B8028093B702FE01E655FD4FD8
S1130D50108240E060E080E00E94B0029B01AC01A0
S1130D60BE0189EB92E00E94370289EB92E00E9477
S1130D70190163EE71E080ED92E00E94F30B4AE00A
S1130D8050E0BE0180ED92E00E94E80C68EE71E054
S1130D9080ED92E00E94F30B6091B7027091B8026B
S1130DA04AE050E080ED92E00E94E80C62EF71E0CE
S1130DB080ED92E00E94F30B4AE050E06CE070E0BA
S1130DC080ED92E00E94D10C64EF71E080ED92E03E
S1130DD00E94F30B8091B7029091B80244E6489FB9
S1130DE09001499F300D1124ABEABAEA0E94AB0E80
S1130DF0BC017695679576956795769567954AE0F3
S1130E0050E080ED92E00E94E80C66EF71E080ED26
S1130E1092E00E941D0CDF91CF910895FC01EE0F2A
S1130E20FF1FE80FF91FEA57FD4FE60FF11D208160
S1130E30222319F00E944D06089580E008950F932F
S1130E401F93CF93DF93FC01E655FD4F20812111C1
S1130E507EC0EC018091B7029091B8020196909304
S1130E60B8028093B702FE01E655FD4F81E080830E
S1130E7062E0CE010E940E07082F61E0CE010E94BD
S1130E800E07182F60E0CE010E940E07402F612F3D
S1130E900E94B0029B01AC01BE0189EB92E00E946A
S1130EA0370289EB92E00E94190163EE71E080ED54
S1130EB092E00E94F30B4AE050E0BE0180ED92E024
S1130EC00E94E80C68EE71E080ED92E00E94F30B62
S1130ED06091B7027091B8024AE050E080ED92E070
S1130EE00E94E80C62EF71E080ED92E00E94F30B47
S1130EF04AE050E06CE070E080ED92E00E94D10C9A
S1130F0064EF71E080ED92E00E94F30B8091B702F0
S1130F109091B80244E6489F9001499F300D1124F6
S1130F20ABEABAEA0E94AB0EBC017695679576955A
S1130F306795769567954AE050E080ED92E00E94CF
S1130F40E80C66EF71E080ED92E00E941D0CDF91E9
S1130F50CF911F910F910895EF92FF920F931F93DA
S1130F60CF93DF93C0E0D0E000E010E0CC30D105B7
S1130F7080F5FE01E655FD4F80818823E1F062E0B3
S1130F80CE010E940E07E82E61E0CE010E940E07FA
S1130F90F82E60E0CE010E940E074E2D6F2D0E94A8
S1130FA0B0029B01AC01BE0189EB92E00E943702C2
S1130FB00F5F1F4F0CC040E060E080E00E94B00271
S1130FC09B01AC01BE0189EB92E00E94370221969D
S1130FD0CDCF89EB92E00E9419011093B8020093DF
S1130FE0B702DF91CF911F910F91FF90EF90089579
S1130FF0FF920F931F93CF93DF932091CF02909191
S11310008402921708F06BC0F42EC62F182F0E948A
S11310102D106C2F70E00E94560E01E0080FC0E006
S1131020D0E0202F30E0C217D30708F04EC00E9452
S11310302D1064E670E00E94560E212F30E08217D6
S113104093077CF40E942D102091B7023091B802CE
S11310506CE070E0621B730B0E94420EDC0151E0F5
S11310600AC00E942D106091B7027091B8020E94CC
S1131070420EDC0150E020E030E060E070E02C3013
S1131080310508F5F901E655FD4F908191110BC02A
S1131090552349F06F5F7F4FA617B70789F4C9013D
S11310A00E941F0710C0992359F0511109C06F5FA6
S11310B07F4FA617B70721F4C9010E94920603C007
S11310C02F5F3F4FDCCF2196ACCF0E942D106F2DA8
S11310D070E00E94560E809384021092CF02DF913A
S11310E0CF911F910F91FF9008958091B6028330A4
S11310F059F1843009F45CC0823009F068C08091F1
S1131100B7029091B80244E6489F9001499F300D80
S11311101124ABEABAEA0E94AB0E96958795969590
S113112087959695879520910E0130910F0182172E
S1131130930730F443E065E08AE50E94F8070895D8
S113114083E08093B60208958091B7029091B8022B
S113115044E6489F9001499F300D1124ABEABAEA56
S11311600E94AB0E9695879596958795969587954B
S113117020910C0130910D018217930730F443E064
S113118062E080E50E94F807089520910A013091F9
S11311900B012817390730F443E062E084E10E9430
S11311A0F807089543E062E082E30E94F807089597
S11311B08091B7029091B802892B21F481E0809349
S11311C0B602089543E065E08AE00E94F8070895B6
S11311D0E1EBF0E0808187608083E0E7F0E08081EC
S11311E081608083789408951F920F920FB60F92B6
S11311F011248F93EF93FF93E0E7F0E080818E7FDB
S113120080838091CE0281110DC080918502873246
S113121030F081E08093CE021092850203C08F5F8C
S113122080938502E0E7F0E0808181608083FF9114
S1131230EF918F910F900FBE0F901F9018950F9301
S11312401F93CF93DF93EC018B01019759F46F3F08
S11312507F4F41F422E548E06CE070E089EB92E0D6
S11312600E941602CD2B39F40F3F1F4F21F489EB56
S113127092E00E948900DF91CF911F910F91089510
S113128026E040E05BE460E070E080ED92E00E94E4
S1131290B20A69EF71E080ED92E00E941D0C89EBC7
S11312A092E00E949B001092B8021092B702109232
S11312B0B60220E030E02C303105D0F440E050E0BC
S11312C04430510590F481E0F901E655FD4F8083E7
S11312D0F901EE0FFF1FE20FF31FEA57FD4F808362
S11312E0818382834F5F5F4FEBCF2F5F3F4FE3CF0D
S11312F00E94AC070E94E8080895CF93DF930E94F0
S1131300FC058091CE02882351F0CEECD2E0898195
S11313108F5F89830E9475080E94AC071882DF9151
S1131320CF9108956FEF7FEF81E090E00E941F0955
S113133008956FEF7FEF80E090E00E941F09089509
S1131340FC01218D30E0205C3F4F828DA901481BB8
S11313505109CA018F7399270895FC01918D828DDB
S1131360981731F0828DE80FF11D858D90E0089576
S11313708FEF9FEF0895FC01918D828D981761F096
S1131380828DDF01A80FB11D5D968C91928D9F5FB8
S11313909F73928F90E008958FEF9FEF0895FC0163
S11313A0238D348D231738F08FE390E0821B91094D
S11313B0830F911D0895832F90E0821B910901975B
S11313C0089582EA9BE0892B39F080E090E0892B34
S11313D029F00E94A20B03C080E001C080E08111CB
S11313E00E9400000895FC01848DDF01A80FB11D47
S11313F0A35ABF4F8C91248D30E02F5F3F4F2F7342
S11314003078332334F421503109206C3F6F2F5F3F
S11314103F4F248FA689B7898C93A089B1898C9179
S1131420837080648C93938D848D981306C0028896
S1131430F389E02D80818F7D808308951F93CF935E
S1131440DF93EC01188D112329F1EA89FB8980814E
S113145085FD07C0A889B9898C9186FD04C0812FB8
S113146003C0812F01C080E08823A1F00FB607FCE0
S113147005C0908195FD03C080E001C080E0882311
S113148021F3E889F989808185FFDFCFCE010E94AD
S1131490F309DBCFDF91CF911F9108950F931F9331
S11314A0CF93DF93EC0181E0888F9B8D8C8D981313
S11314B007C0E889F989808185FD04C080E003C004
S11314C080E001C081E0882391F08FB7F89491E027
S11314D0992359F0EE89FF896083E889F98990811D
S11314E093709064908390E0F3CF8FBF34C02B8DC2
S11314F030E02F5F3F4F2F733078332334F4215083
S11315003109206C3F6F2F5F3F4F162F022F8C8DB8
S113151008130CC00FB607FCFACFE889F98980815B
S113152085FFF5CFCE010E94F309F1CF8B8DFE012B
S1131530E80FF11DE35AFF4F10839FB7F89481E041
S1131540882341F00B8FEA89FB8980818062808344
S113155080E0F6CF9FBF81E090E0DF91CF911F91B3
S11315600F910895CF92DF92EF92FF921F93CF9342
S1131570DF93EC016A017B01122F60E47BE48CE4CD
S113158090E0A70196010E946A0EDA01C901019751
S1131590A109B109B695A795979587959C01E88906
S11315A0F98982E08083211580E13807A8F0E88971
S11315B0F989108260EA75E286E290E0A70196015B
S11315C00E946A0EDA01C9010197A109B109B69511
S11315D0A795979587959C01EC85FD853083EE85CD
S11315E0FF852083188EEC89FD891083EA89FB89A5
S11315F0808180618083EA89FB898081886080831F
S1131600EA89FB89808180688083EA89FB898081FB
S11316108F7D8083DF91CF911F91FF90EF90DF90BA
S1131620CF900895019779F56F3F7F4F61F5E0ED15
S1131630F2E01382128288EE93E0A0E0B0E08483AB
S11316409583A683B78384E292E09183808385ECBB
S113165090E09587848784EC90E09787868780EC78
S113166090E0918B808B81EC90E0938B828B82EC69
S113167090E0958B848B86EC90E0978B868B118E13
S1131680128E138E148E08951F920F920FB60F921E
S113169011242F938F939F93AF93BF93EF93FF9353
S11316A0E091E002F091E102808182FD14C0E0ED5E
S11316B0F2E0A689B7892C91818D8F5F8F73928D0B
S11316C0891771F0DF01E18DF0E0E053FD4F258FC4
S11316D059968C9305C0E091E602F091E70280816F
S11316E0FF91EF91BF91AF919F918F912F910F90A7
S11316F00FBE0F901F9018951F920F920FB60F9266
S113170011242F933F934F935F936F937F938F9302
S11317109F93AF93BF93EF93FF9380ED92E00E946A
S1131720F309FF91EF91BF91AF919F918F917F91B9
S11317306F915F914F913F912F910F900FBE0F903A
S11317401F90189580ED92E00E94A00921E0892B5A
S113175009F420E0822F08956FEF7FEF81E090E09D
S11317600E94120B089508950E94680D0E94B30B05
S11317700E9440090E947D0981EE99E0892BD1F3F2
S11317800E94E109F7CFCF92DF92EF92FF920F937D
S11317901F93CF93DF938C01DB01C0E0D0E07A018B
S11317A081E0E81AF108452BA1F0F80180819181CC
S11317B0FC01208131816D01FFEFCF1ADF0A6C91AA
S11317C0C801F9010995892B21F02196A701D601B9
S11317D0E6CFCE01DF91CF911F910F91FF90EF9053
S11317E0DF90CF9008956115710581F0FB010190A0
S11317F00020E9F73197AF01461B570BDC01ED914F
S1131800FC910280F381E02D0995089580E090E039
S11318100895DC01ED91FC910190F081E02D099592
S11318200895DC01ED91FC910280F381E02D42E00A
S113183050E062E372E0099508950F931F93CF93EC
S1131840DF93EC010E94F30B8C01CE010E94110C7A
S1131850800F911FDF91CF911F910F9108958F9267
S11318609F92AF92BF92DF92EF92FF920F931F93DA
S1131870CF93DF93CDB7DEB7A1970FB6F894DEBF51
S11318800FBECDBF7C01CB01BA01D22E19A221E03B
S11318902D1520F00F2EFAE0DF2EF02D8E010F5DB6
S11318A01F4F8D2C912CA12CB12CA50194010E94C9
S11318B06A0EE62F622F732F842F952F0150110982
S11318C0EA3010F4E05D01C0E95CD801EC936115E5
S11318D071058105910529F70115110591F0F801AC
S11318E001900020E9F73197AF01401B510BD7015C
S11318F0ED91FC910280F381E02DB801C7010995B7
S113190002C080E090E0A1960FB6F894DEBF0FBE4F
S1131910CDBFDF91CF911F910F91FF90EF90DF909A
S1131920BF90AF909F908F900895CF92DF92EF92E7
S1131930FF920F931F93CF93DF93EC016A017B0116
S11319402115310541F4E881F9810190F081E02D00
S1131950642F09951DC02A303105C1F4772394F40E
S11319606DE20E94090C8C0144275527BA014C19D9
S11319705D096E097F092AE0CE010E942F0C800FB9
S1131980911F06C02AE00E942F0C02C00E942F0C57
S1131990DF91CF911F910F91FF90EF90DF90CF9047
S11319A008959A01AB01770F660B770B0E94950C93
S11319B008952115310549F4DC01ED91FC91019064
S11319C0F081E02D642F099508950E942F0C08954D
S11319D09A01AB0160E070E00E94D90C08951F9257
S11319E00F920FB60F9211244F935F936F937F93CF
S11319F08F939F93AF93BF9340916E0350916F0366
S1131A00609170037091710390916D0386E6890F64
S1131A108D3730F089EE890F4F5F5F4F6F4F7F4FE7
S1131A2080936D0340936E0350936F036093700330
S1131A30709371038091720390917303A091740366
S1131A40B09175030196A11DB11D8093720390930B
S1131A507303A0937403B0937503BF91AF919F91E7
S1131A608F917F916F915F914F910F900FBE0F9067
S1131A701F9018950F931F933FB7F89480917203AA
S1131A8090917303A0917403B091750326B5A89B3C
S1131A9005C02F3F19F00196A11DB11D3FBFBA2FFC
S1131AA0A92F982F8827820F911DA11DB11DAC016C
S1131AB0BD01440F551F661F771F8A019B01080F44
S1131AC0191F2A1F3B1FC901B8011F910F910895C7
S1131AD0789484B5826084BD84B5816084BD85B505
S1131AE0826085BD85B5816085BDEEE6F0E08081CC
S1131AF081608083E1E8F0E01082808182608083ED
S1131B00808181608083E0E8F0E08081816080836F
S1131B10E1EBF0E0808184608083E0EBF0E08081A1
S1131B2081608083EAE7F0E0808184608083808143
S1131B3082608083808181608083808180688083EB
S1131B401092C1000895833069F028F48130B1F017
S1131B508230C1F008958730C9F08830E9F08430CC
S1131B6001F506C0E0E8F0E080818F778083089576
S1131B70E0E8F0E080818F7D8083089584B58F77DD
S1131B8084BD089584B58F7D84BD0895E0EBF0E0B5
S1131B9080818F7780830895E0EBF0E080818F7DF2
S1131BA080830895CF93DF9390E0FC01E458FF4FC6
S1131BB02491FC01E057FF4F8491882379F190E050
S1131BC0880F991FFC01E255FF4FA591B491FC01C8
S1131BD0EC55FF4FC591D49161110CC09FB7F89497
S1131BE08C91E22FE0958E238C932881E223E88365
S1131BF09FBF14C0623061F49FB7F8948C91322F68
S1131C00309583238C93E881E22BE8839FBF06C041
S1131C108FB7F894EC91E22BEC938FBFDF91CF91C7
S1131C2008951F93CF93DF93282F30E0F901E859EB
S1131C30FF4F8491F901E458FF4F1491F901E057E3
S1131C40FF4FC491CC23D1F0D62F81110E94A30D54
S1131C50EC2FF0E0EE0FFF1FEC55FF4FA591B49170
S1131C608FB7F894D11106C09C91E12FE095E92338
S1131C70EC9303C0EC91E12BEC938FBFDF91CF91F8
S1131C801F910895AA1BBB1B51E107C0AA1FBB1FCC
S1131C90A617B70710F0A61BB70B881F991F5A95F4
S1131CA0A9F780959095BC01CD01089597FB072E67
S1131CB016F4009407D077FD09D00E94420E07FC69
S1131CC005D03EF4909581959F4F08957095619548
S1131CD07F4F0895A1E21A2EAA1BBB1BFD010DC064
S1131CE0AA1FBB1FEE1FFF1FA217B307E407F507C8
S1131CF020F0A21BB30BE40BF50B661F771F881FA4
S1131D00991F1A9469F760957095809590959B0139
S1131D10AC01BD01CF010895052E97FB1EF400947C
S1131D200E94A30E57FD07D00E946A0E07FC03D041
S1131D304EF40C94A30E50954095309521953F4F49
S1131D404F4F5F4F089590958095709561957F4FA3
S1131D508F4F9F4F0895A29FB001B39FC001A39FCF
S1131D60700D811D1124911DB29F700D811D1124D0
S1131D70911D0895EE0FFF1F0590F491E02D099435
S1131D800F931F93CF93DF938230910510F482E079
S1131D9090E0E0917803F091790320E030E0A0E056
S1131DA0B0E0309719F140815181028113814817C5
S1131DB05907C8F08417950769F4109731F0129603
S1131DC00C93129713961C9327C0009378031093D7
S1131DD0790322C02115310519F04217530718F46D
S1131DE09A01BD01EF01DF01F801DBCF21153105B7
S1131DF0F9F0281B390B2430310580F48A819B814A
S1131E006115710521F0FB019383828304C09093D3
S1131E10790380937803FE01329644C0FE01E20FF9
S1131E20F31F8193919322503109398328833AC057
S1131E302091760330917703232B41F42091020102
S1131E4030910301309377032093760320910001AE
S1131E50309101012115310541F42DB73EB7409170
S1131E60040150910501241B350BE0917603F09198
S1131E707703E217F307A0F42E1B3F0B281739074B
S1131E8078F0AC014E5F5F4F2417350748F04E0FD2
S1131E905F1F50937703409376038193919302C01D
S1131EA0E0E0F0E0CF01DF91CF911F910F91089511
S1131EB0CF93DF93009709F481C0FC01329713821A
S1131EC01282A0917803B0917903109781F4208154
S1131ED03181820F931F2091760330917703281765
S1131EE0390751F5F0937703E093760367C0ED016A
S1131EF020E030E0CE17DF0740F44A815B819E0189
S1131F0041155105F1F0EA01F5CFD383C283408135
S1131F105181840F951FC817D90759F48881998175
S1131F20840F951F0296918380838A819B8193837A
S1131F3082832115310529F4F0937903E093780322
S1131F403DC0E901FB83EA8349915991C40FD51F30
S1131F50EC17FD0761F480819181840F951F02962F
S1131F60E90199838883828193819B838A83E0E05A
S1131F70F0E012968D919C911397009719F0FD0152
S1131F80DC01F7CF8D919C9111979D012E5F3F4FFE
S1131F90820F931F20917603309177032817390716
S1131FA069F4309729F4109279031092780302C0EF
S1131FB013821282B0937703A0937603DF91CF91BB
S1131FC008958F929F92AF92BF92CF92DF92EF9239
S1131FD0FF92CF93DF93EC01688179818A819B81A1
S1131FE0611571058105910521F464E279ED8BE5B4
S1131FF097E02DE133EF41E050E00E948C0E49015F
S11320005A019B01AC01A7EAB1E40E945A106B018A
S11320107C01ACEEB4EFA50194010E946810DC01D0
S1132020CB018C0D9D1DAE1DBF1DB7FF03C00197D5
S1132030A109B04888839983AA83BB839F77DF91E2
S1132040CF91FF90EF90DF90CF90BF90AF909F9093
S11320508F9008950E94E10F089586E091E00E9418
S1132060E10F0895A0E0B0E080930601909307018A
S1132070A0930801B09309010895DC0101C06D9398
S113208041505040E0F70895F999FECF92BD81BDCB
S1132090F89A992780B50895262FF999FECF1FBA8B
S11320A092BD81BD20BD0FB6F894FA9AF99A0FBE7D
S11320B0019608950E94AB0EA59F900DB49F900DBC
S11320C0A49F800D911D11240895B7FF0C945A10FC
S11320D00E945A10821B930B089510E0CEE5D0E0C5
S11320E004C0FE010E94BA0E2196CF35D107C9F76C
S10720F0F894FFCF8E
S11320F400007A032000010000005A00460050004A
S11321046C656400636C6561725F6F6E00636C651B
S113211461725F6F666600636C6561725F6F6E5FA8
S1132124616C6C00636C6561725F6F66665F616CA1
S11321346C006F6E5F616C6C5F7777006F6E5F61CC
S11321446C6C5F6E77006F6E5F616C6C5F637700BD
S11321546F6E5F7777006F66665F7777006F6E5F89
S11321646E77006F66665F6E77006F6E5F637700ED
S11321746F66665F63770073657474696E67006481
S1132184696E6E6572006E696768745F6F6E006E67
S1132194696768745F6D61696E006E696768745F0E
S11321A46F666600436F6D6D3A206275666665728C
S11321B4206F766572666C6F7700436F6D6D3A209D
S11321C400756E646566696E656420636F6D6D6128
S11321D46E64004C45445B005D202D206F666620D0
S11321E428002F003D002529004C696768745F634B
S11321F46F6E74726F6C5F686F7573652076312EC1
S1132204302074657374206669726D776172650039
S1132214000000004E0AC30BCF091E0AA009BB0923
S1132224AD090D0A006E616E00696E66006F766614
S10522340000A4
S9030000FC
